{
  "contractName": "WordGame",
  "abi": [
    {
      "constant": false,
      "inputs": [
        {
          "name": "_playerAnswer",
          "type": "bytes32"
        },
        {
          "name": "_roundId",
          "type": "bytes32"
        }
      ],
      "name": "roundResult",
      "outputs": [],
      "payable": false,
      "stateMutability": "nonpayable",
      "type": "function"
    },
    {
      "constant": false,
      "inputs": [],
      "name": "cancelRound",
      "outputs": [],
      "payable": false,
      "stateMutability": "nonpayable",
      "type": "function"
    }
  ],
  "bytecode": "0x608060405234801561001057600080fd5b50610669806100206000396000f3fe60806040526004361061004c576000357c0100000000000000000000000000000000000000000000000000000000900463ffffffff1680631d6212111461005157806386a594d014610096575b600080fd5b34801561005d57600080fd5b506100946004803603604081101561007457600080fd5b8101908080359060200190929190803590602001909291905050506100ad565b005b3480156100a257600080fd5b506100ab610455565b005b7f133713371337133713371337133713371337133713371337133713371337133760010281141515610147576040517f08c379a000000000000000000000000000000000000000000000000000000000815260040180806020018281038252600e8152602001807f77726f6e6720726f756e6420494400000000000000000000000000000000000081525060200191505060405180910390fd5b6000731222222222222222222222222222222222222222905060008173ffffffffffffffffffffffffffffffffffffffff166370a08231306040518263ffffffff167c0100000000000000000000000000000000000000000000000000000000028152600401808273ffffffffffffffffffffffffffffffffffffffff1673ffffffffffffffffffffffffffffffffffffffff16815260200191505060206040518083038186803b1580156101fb57600080fd5b505afa15801561020f573d6000803e3d6000fd5b505050506040513d602081101561022557600080fd5b810190808051906020019092919050505090507f123412341234123412341234123412341234123412341234123412341234123460010284141561035b578173ffffffffffffffffffffffffffffffffffffffff1663a9059cbb731333333333333333333333333333333333333333836040518363ffffffff167c0100000000000000000000000000000000000000000000000000000000028152600401808373ffffffffffffffffffffffffffffffffffffffff1673ffffffffffffffffffffffffffffffffffffffff16815260200182815260200192505050602060405180830381600087803b15801561031a57600080fd5b505af115801561032e573d6000803e3d6000fd5b505050506040513d602081101561034457600080fd5b81019080805190602001909291905050505061044f565b8173ffffffffffffffffffffffffffffffffffffffff1663a9059cbb731444444444444444444444444444444444444444836040518363ffffffff167c0100000000000000000000000000000000000000000000000000000000028152600401808373ffffffffffffffffffffffffffffffffffffffff1673ffffffffffffffffffffffffffffffffffffffff16815260200182815260200192505050602060405180830381600087803b15801561041257600080fd5b505af1158015610426573d6000803e3d6000fd5b505050506040513d602081101561043c57600080fd5b8101908080519060200190929190505050505b50505050565b6000731222222222222222222222222222222222222222905060008173ffffffffffffffffffffffffffffffffffffffff166370a08231306040518263ffffffff167c0100000000000000000000000000000000000000000000000000000000028152600401808273ffffffffffffffffffffffffffffffffffffffff1673ffffffffffffffffffffffffffffffffffffffff16815260200191505060206040518083038186803b15801561050957600080fd5b505afa15801561051d573d6000803e3d6000fd5b505050506040513d602081101561053357600080fd5b810190808051906020019092919050505090508173ffffffffffffffffffffffffffffffffffffffff1663a9059cbb731444444444444444444444444444444444444444836040518363ffffffff167c0100000000000000000000000000000000000000000000000000000000028152600401808373ffffffffffffffffffffffffffffffffffffffff1673ffffffffffffffffffffffffffffffffffffffff16815260200182815260200192505050602060405180830381600087803b1580156105fd57600080fd5b505af1158015610611573d6000803e3d6000fd5b505050506040513d602081101561062757600080fd5b810190808051906020019092919050505050505056fea165627a7a72305820c68adb4dc3a9843c565007e2867e445801f1a88a7099e88d7a91bc9bb9a0f38c0029",
  "source": "pragma solidity ^0.5.0;\nimport \"openzeppelin-solidity/contracts/token/ERC20/IERC20.sol\";\n\ncontract WordGame {\n\tbytes32 constant ROUND_ID = 0x1337133713371337133713371337133713371337133713371337133713371337;\n\tbytes32 constant ANSWER = 0x1234123412341234123412341234123412341234123412341234123412341234;\n\taddress constant TOKEN_ADDR = 0x1222222222222222222222222222222222222222;\n\taddress constant PLAYER = 0x1333333333333333333333333333333333333333;\n\taddress constant HOUSE = 0x1444444444444444444444444444444444444444;\n\n\tfunction roundResult(bytes32 _playerAnswer, bytes32 _roundId) public {\n\t\trequire(_roundId == ROUND_ID, \"wrong round ID\");\n\t\tIERC20 token = IERC20(TOKEN_ADDR);\n\t\tuint balance = token.balanceOf(address(this));\n\n\t\tif (_playerAnswer == ANSWER) {\n\t\t\ttoken.transfer(PLAYER, balance);\n\t\t} else {\n\t\t\ttoken.transfer(HOUSE, balance);\n\t\t}\n\t}\n\n\tfunction cancelRound() public {\n\t\tIERC20 token = IERC20(TOKEN_ADDR);\n\t\tuint balance = token.balanceOf(address(this));\n\t\ttoken.transfer(HOUSE, balance);\n\t}\n}\n",
  "sourcePath": "E:/Work/leap-dao/leap-word-game/server/contracts/WordGame.sol",
  "compiler": {
    "name": "solc",
    "version": "0.5.0+commit.1d4f565a.Emscripten.clang"
  },
  "schemaVersion": "3.0.9",
  "updatedAt": "2019-05-28T12:52:58.924Z",
  "devdoc": {
    "methods": {}
  },
  "userdoc": {
    "methods": {}
  }
}